{
  "_format": "hh-sol-artifact-1",
  "contractName": "NewNFT",
  "sourceName": "contracts/NFT.sol",
  "abi": [
    {
      "inputs": [],
      "stateMutability": "nonpayable",
      "type": "constructor"
    },
    {
      "inputs": [
        {
          "internalType": "address",
          "name": "sender",
          "type": "address"
        },
        {
          "internalType": "uint256",
          "name": "tokenId",
          "type": "uint256"
        },
        {
          "internalType": "address",
          "name": "owner",
          "type": "address"
        }
      ],
      "name": "ERC721IncorrectOwner",
      "type": "error"
    },
    {
      "inputs": [
        {
          "internalType": "address",
          "name": "operator",
          "type": "address"
        },
        {
          "internalType": "uint256",
          "name": "tokenId",
          "type": "uint256"
        }
      ],
      "name": "ERC721InsufficientApproval",
      "type": "error"
    },
    {
      "inputs": [
        {
          "internalType": "address",
          "name": "approver",
          "type": "address"
        }
      ],
      "name": "ERC721InvalidApprover",
      "type": "error"
    },
    {
      "inputs": [
        {
          "internalType": "address",
          "name": "operator",
          "type": "address"
        }
      ],
      "name": "ERC721InvalidOperator",
      "type": "error"
    },
    {
      "inputs": [
        {
          "internalType": "address",
          "name": "owner",
          "type": "address"
        }
      ],
      "name": "ERC721InvalidOwner",
      "type": "error"
    },
    {
      "inputs": [
        {
          "internalType": "address",
          "name": "receiver",
          "type": "address"
        }
      ],
      "name": "ERC721InvalidReceiver",
      "type": "error"
    },
    {
      "inputs": [
        {
          "internalType": "address",
          "name": "sender",
          "type": "address"
        }
      ],
      "name": "ERC721InvalidSender",
      "type": "error"
    },
    {
      "inputs": [
        {
          "internalType": "uint256",
          "name": "tokenId",
          "type": "uint256"
        }
      ],
      "name": "ERC721NonexistentToken",
      "type": "error"
    },
    {
      "anonymous": false,
      "inputs": [
        {
          "indexed": true,
          "internalType": "address",
          "name": "owner",
          "type": "address"
        },
        {
          "indexed": true,
          "internalType": "address",
          "name": "approved",
          "type": "address"
        },
        {
          "indexed": true,
          "internalType": "uint256",
          "name": "tokenId",
          "type": "uint256"
        }
      ],
      "name": "Approval",
      "type": "event"
    },
    {
      "anonymous": false,
      "inputs": [
        {
          "indexed": true,
          "internalType": "address",
          "name": "owner",
          "type": "address"
        },
        {
          "indexed": true,
          "internalType": "address",
          "name": "operator",
          "type": "address"
        },
        {
          "indexed": false,
          "internalType": "bool",
          "name": "approved",
          "type": "bool"
        }
      ],
      "name": "ApprovalForAll",
      "type": "event"
    },
    {
      "anonymous": false,
      "inputs": [
        {
          "indexed": true,
          "internalType": "address",
          "name": "from",
          "type": "address"
        },
        {
          "indexed": true,
          "internalType": "address",
          "name": "to",
          "type": "address"
        },
        {
          "indexed": true,
          "internalType": "uint256",
          "name": "tokenId",
          "type": "uint256"
        }
      ],
      "name": "Transfer",
      "type": "event"
    },
    {
      "inputs": [
        {
          "internalType": "address",
          "name": "to",
          "type": "address"
        },
        {
          "internalType": "uint256",
          "name": "tokenId",
          "type": "uint256"
        }
      ],
      "name": "approve",
      "outputs": [],
      "stateMutability": "nonpayable",
      "type": "function"
    },
    {
      "inputs": [
        {
          "internalType": "address",
          "name": "owner",
          "type": "address"
        }
      ],
      "name": "balanceOf",
      "outputs": [
        {
          "internalType": "uint256",
          "name": "",
          "type": "uint256"
        }
      ],
      "stateMutability": "view",
      "type": "function"
    },
    {
      "inputs": [
        {
          "internalType": "uint256",
          "name": "tokenId",
          "type": "uint256"
        }
      ],
      "name": "getApproved",
      "outputs": [
        {
          "internalType": "address",
          "name": "",
          "type": "address"
        }
      ],
      "stateMutability": "view",
      "type": "function"
    },
    {
      "inputs": [],
      "name": "getTokenId",
      "outputs": [
        {
          "internalType": "uint256",
          "name": "",
          "type": "uint256"
        }
      ],
      "stateMutability": "view",
      "type": "function"
    },
    {
      "inputs": [
        {
          "internalType": "address",
          "name": "owner",
          "type": "address"
        },
        {
          "internalType": "address",
          "name": "operator",
          "type": "address"
        }
      ],
      "name": "isApprovedForAll",
      "outputs": [
        {
          "internalType": "bool",
          "name": "",
          "type": "bool"
        }
      ],
      "stateMutability": "view",
      "type": "function"
    },
    {
      "inputs": [
        {
          "internalType": "address",
          "name": "to",
          "type": "address"
        }
      ],
      "name": "mintNFT",
      "outputs": [
        {
          "internalType": "uint256",
          "name": "",
          "type": "uint256"
        }
      ],
      "stateMutability": "nonpayable",
      "type": "function"
    },
    {
      "inputs": [],
      "name": "name",
      "outputs": [
        {
          "internalType": "string",
          "name": "",
          "type": "string"
        }
      ],
      "stateMutability": "view",
      "type": "function"
    },
    {
      "inputs": [
        {
          "internalType": "uint256",
          "name": "tokenId",
          "type": "uint256"
        }
      ],
      "name": "ownerOf",
      "outputs": [
        {
          "internalType": "address",
          "name": "",
          "type": "address"
        }
      ],
      "stateMutability": "view",
      "type": "function"
    },
    {
      "inputs": [
        {
          "internalType": "address",
          "name": "from",
          "type": "address"
        },
        {
          "internalType": "address",
          "name": "to",
          "type": "address"
        },
        {
          "internalType": "uint256",
          "name": "tokenId",
          "type": "uint256"
        }
      ],
      "name": "safeTransferFrom",
      "outputs": [],
      "stateMutability": "nonpayable",
      "type": "function"
    },
    {
      "inputs": [
        {
          "internalType": "address",
          "name": "from",
          "type": "address"
        },
        {
          "internalType": "address",
          "name": "to",
          "type": "address"
        },
        {
          "internalType": "uint256",
          "name": "tokenId",
          "type": "uint256"
        },
        {
          "internalType": "bytes",
          "name": "data",
          "type": "bytes"
        }
      ],
      "name": "safeTransferFrom",
      "outputs": [],
      "stateMutability": "nonpayable",
      "type": "function"
    },
    {
      "inputs": [
        {
          "internalType": "address",
          "name": "operator",
          "type": "address"
        },
        {
          "internalType": "bool",
          "name": "approved",
          "type": "bool"
        }
      ],
      "name": "setApprovalForAll",
      "outputs": [],
      "stateMutability": "nonpayable",
      "type": "function"
    },
    {
      "inputs": [
        {
          "internalType": "bytes4",
          "name": "interfaceId",
          "type": "bytes4"
        }
      ],
      "name": "supportsInterface",
      "outputs": [
        {
          "internalType": "bool",
          "name": "",
          "type": "bool"
        }
      ],
      "stateMutability": "view",
      "type": "function"
    },
    {
      "inputs": [],
      "name": "symbol",
      "outputs": [
        {
          "internalType": "string",
          "name": "",
          "type": "string"
        }
      ],
      "stateMutability": "view",
      "type": "function"
    },
    {
      "inputs": [
        {
          "internalType": "uint256",
          "name": "tokenId",
          "type": "uint256"
        }
      ],
      "name": "tokenURI",
      "outputs": [
        {
          "internalType": "string",
          "name": "",
          "type": "string"
        }
      ],
      "stateMutability": "view",
      "type": "function"
    },
    {
      "inputs": [
        {
          "internalType": "address",
          "name": "from",
          "type": "address"
        },
        {
          "internalType": "address",
          "name": "to",
          "type": "address"
        },
        {
          "internalType": "uint256",
          "name": "tokenId",
          "type": "uint256"
        }
      ],
      "name": "transferFrom",
      "outputs": [],
      "stateMutability": "nonpayable",
      "type": "function"
    }
  ],
  "bytecode": "0x6080604052600160065534801561001557600080fd5b506040518060400160405280600581526020017f446f6d6d790000000000000000000000000000000000000000000000000000008152506040518060400160405280600381526020017f444f4d0000000000000000000000000000000000000000000000000000000000815250816000908161009191906102f9565b5080600190816100a191906102f9565b5050506103cb565b600081519050919050565b7f4e487b7100000000000000000000000000000000000000000000000000000000600052604160045260246000fd5b7f4e487b7100000000000000000000000000000000000000000000000000000000600052602260045260246000fd5b6000600282049050600182168061012a57607f821691505b60208210810361013d5761013c6100e3565b5b50919050565b60008190508160005260206000209050919050565b60006020601f8301049050919050565b600082821b905092915050565b6000600883026101a57fffffffffffffffffffffffffffffffffffffffffffffffffffffffffffffffff82610168565b6101af8683610168565b95508019841693508086168417925050509392505050565b6000819050919050565b6000819050919050565b60006101f66101f16101ec846101c7565b6101d1565b6101c7565b9050919050565b6000819050919050565b610210836101db565b61022461021c826101fd565b848454610175565b825550505050565b600090565b61023961022c565b610244818484610207565b505050565b5b818110156102685761025d600082610231565b60018101905061024a565b5050565b601f8211156102ad5761027e81610143565b61028784610158565b81016020851015610296578190505b6102aa6102a285610158565b830182610249565b50505b505050565b600082821c905092915050565b60006102d0600019846008026102b2565b1980831691505092915050565b60006102e983836102bf565b9150826002028217905092915050565b610302826100a9565b67ffffffffffffffff81111561031b5761031a6100b4565b5b6103258254610112565b61033082828561026c565b600060209050601f8311600181146103635760008415610351578287015190505b61035b85826102dd565b8655506103c3565b601f19841661037186610143565b60005b8281101561039957848901518255600182019150602085019450602081019050610374565b868310156103b657848901516103b2601f8916826102bf565b8355505b6001600288020188555050505b505050505050565b611ec7806103da6000396000f3fe608060405234801561001057600080fd5b50600436106100f55760003560e01c806354ba0f2711610097578063a22cb46511610066578063a22cb46514610298578063b88d4fde146102b4578063c87b56dd146102d0578063e985e9c514610300576100f5565b806354ba0f27146101ea5780636352211e1461021a57806370a082311461024a57806395d89b411461027a576100f5565b8063081812fc116100d3578063081812fc14610166578063095ea7b31461019657806323b872dd146101b257806342842e0e146101ce576100f5565b8063010a38f5146100fa57806301ffc9a71461011857806306fdde0314610148575b600080fd5b610102610330565b60405161010f919061165b565b60405180910390f35b610132600480360381019061012d91906116e2565b61033a565b60405161013f919061172a565b60405180910390f35b61015061041c565b60405161015d91906117d5565b60405180910390f35b610180600480360381019061017b9190611823565b6104ae565b60405161018d9190611891565b60405180910390f35b6101b060048036038101906101ab91906118d8565b6104ca565b005b6101cc60048036038101906101c79190611918565b6104e0565b005b6101e860048036038101906101e39190611918565b6105e2565b005b61020460048036038101906101ff919061196b565b610602565b604051610211919061165b565b60405180910390f35b610234600480360381019061022f9190611823565b61062f565b6040516102419190611891565b60405180910390f35b610264600480360381019061025f919061196b565b610641565b604051610271919061165b565b60405180910390f35b6102826106fb565b60405161028f91906117d5565b60405180910390f35b6102b260048036038101906102ad91906119c4565b61078d565b005b6102ce60048036038101906102c99190611b39565b6107a3565b005b6102ea60048036038101906102e59190611823565b6107c8565b6040516102f791906117d5565b60405180910390f35b61031a60048036038101906103159190611bbc565b610831565b604051610327919061172a565b60405180910390f35b6000600654905090565b60007f80ac58cd000000000000000000000000000000000000000000000000000000007bffffffffffffffffffffffffffffffffffffffffffffffffffffffff1916827bffffffffffffffffffffffffffffffffffffffffffffffffffffffff1916148061040557507f5b5e139f000000000000000000000000000000000000000000000000000000007bffffffffffffffffffffffffffffffffffffffffffffffffffffffff1916827bffffffffffffffffffffffffffffffffffffffffffffffffffffffff1916145b806104155750610414826108c5565b5b9050919050565b60606000805461042b90611c2b565b80601f016020809104026020016040519081016040528092919081815260200182805461045790611c2b565b80156104a45780601f10610479576101008083540402835291602001916104a4565b820191906000526020600020905b81548152906001019060200180831161048757829003601f168201915b5050505050905090565b60006104b98261092f565b506104c3826109b7565b9050919050565b6104dc82826104d76109f4565b6109fc565b5050565b600073ffffffffffffffffffffffffffffffffffffffff168273ffffffffffffffffffffffffffffffffffffffff16036105525760006040517f64a0ae920000000000000000000000000000000000000000000000000000000081526004016105499190611891565b60405180910390fd5b600061056683836105616109f4565b610a0e565b90508373ffffffffffffffffffffffffffffffffffffffff168173ffffffffffffffffffffffffffffffffffffffff16146105dc578382826040517f64283d7b0000000000000000000000000000000000000000000000000000000081526004016105d393929190611c5c565b60405180910390fd5b50505050565b6105fd838383604051806020016040528060008152506107a3565b505050565b600061061082600654610c28565b600160065461061f9190611cc2565b6006819055506006549050919050565b600061063a8261092f565b9050919050565b60008073ffffffffffffffffffffffffffffffffffffffff168273ffffffffffffffffffffffffffffffffffffffff16036106b45760006040517f89c62b640000000000000000000000000000000000000000000000000000000081526004016106ab9190611891565b60405180910390fd5b600360008373ffffffffffffffffffffffffffffffffffffffff1673ffffffffffffffffffffffffffffffffffffffff168152602001908152602001600020549050919050565b60606001805461070a90611c2b565b80601f016020809104026020016040519081016040528092919081815260200182805461073690611c2b565b80156107835780601f1061075857610100808354040283529160200191610783565b820191906000526020600020905b81548152906001019060200180831161076657829003601f168201915b5050505050905090565b61079f6107986109f4565b8383610c46565b5050565b6107ae8484846104e0565b6107c26107b96109f4565b85858585610db5565b50505050565b60606107d38261092f565b5060006107de610f66565b905060008151116107fe5760405180602001604052806000815250610829565b8061080884610f7d565b604051602001610819929190611d32565b6040516020818303038152906040525b915050919050565b6000600560008473ffffffffffffffffffffffffffffffffffffffff1673ffffffffffffffffffffffffffffffffffffffff16815260200190815260200160002060008373ffffffffffffffffffffffffffffffffffffffff1673ffffffffffffffffffffffffffffffffffffffff16815260200190815260200160002060009054906101000a900460ff16905092915050565b60007f01ffc9a7000000000000000000000000000000000000000000000000000000007bffffffffffffffffffffffffffffffffffffffffffffffffffffffff1916827bffffffffffffffffffffffffffffffffffffffffffffffffffffffff1916149050919050565b60008061093b8361104b565b9050600073ffffffffffffffffffffffffffffffffffffffff168173ffffffffffffffffffffffffffffffffffffffff16036109ae57826040517f7e2732890000000000000000000000000000000000000000000000000000000081526004016109a5919061165b565b60405180910390fd5b80915050919050565b60006004600083815260200190815260200160002060009054906101000a900473ffffffffffffffffffffffffffffffffffffffff169050919050565b600033905090565b610a098383836001611088565b505050565b600080610a1a8461104b565b9050600073ffffffffffffffffffffffffffffffffffffffff168373ffffffffffffffffffffffffffffffffffffffff1614610a5c57610a5b81848661124d565b5b600073ffffffffffffffffffffffffffffffffffffffff168173ffffffffffffffffffffffffffffffffffffffff1614610aed57610a9e600085600080611088565b6001600360008373ffffffffffffffffffffffffffffffffffffffff1673ffffffffffffffffffffffffffffffffffffffff168152602001908152602001600020600082825403925050819055505b600073ffffffffffffffffffffffffffffffffffffffff168573ffffffffffffffffffffffffffffffffffffffff1614610b70576001600360008773ffffffffffffffffffffffffffffffffffffffff1673ffffffffffffffffffffffffffffffffffffffff168152602001908152602001600020600082825401925050819055505b846002600086815260200190815260200160002060006101000a81548173ffffffffffffffffffffffffffffffffffffffff021916908373ffffffffffffffffffffffffffffffffffffffff160217905550838573ffffffffffffffffffffffffffffffffffffffff168273ffffffffffffffffffffffffffffffffffffffff167fddf252ad1be2c89b69c2b068fc378daa952ba7f163c4a11628f55a4df523b3ef60405160405180910390a4809150509392505050565b610c42828260405180602001604052806000815250611311565b5050565b600073ffffffffffffffffffffffffffffffffffffffff168273ffffffffffffffffffffffffffffffffffffffff1603610cb757816040517f5b08ba18000000000000000000000000000000000000000000000000000000008152600401610cae9190611891565b60405180910390fd5b80600560008573ffffffffffffffffffffffffffffffffffffffff1673ffffffffffffffffffffffffffffffffffffffff16815260200190815260200160002060008473ffffffffffffffffffffffffffffffffffffffff1673ffffffffffffffffffffffffffffffffffffffff16815260200190815260200160002060006101000a81548160ff0219169083151502179055508173ffffffffffffffffffffffffffffffffffffffff168373ffffffffffffffffffffffffffffffffffffffff167f17307eab39ab6107e8899845ad3d59bd9653f200f220920489ca2b5937696c3183604051610da8919061172a565b60405180910390a3505050565b60008373ffffffffffffffffffffffffffffffffffffffff163b1115610f5f578273ffffffffffffffffffffffffffffffffffffffff1663150b7a02868685856040518563ffffffff1660e01b8152600401610e149493929190611dab565b6020604051808303816000875af1925050508015610e5057506040513d601f19601f82011682018060405250810190610e4d9190611e0c565b60015b610ed4573d8060008114610e80576040519150601f19603f3d011682016040523d82523d6000602084013e610e85565b606091505b506000815103610ecc57836040517f64a0ae92000000000000000000000000000000000000000000000000000000008152600401610ec39190611891565b60405180910390fd5b805181602001fd5b63150b7a0260e01b7bffffffffffffffffffffffffffffffffffffffffffffffffffffffff1916817bffffffffffffffffffffffffffffffffffffffffffffffffffffffff191614610f5d57836040517f64a0ae92000000000000000000000000000000000000000000000000000000008152600401610f549190611891565b60405180910390fd5b505b5050505050565b606060405180602001604052806000815250905090565b606060006001610f8c84611335565b01905060008167ffffffffffffffff811115610fab57610faa611a0e565b5b6040519080825280601f01601f191660200182016040528015610fdd5781602001600182028036833780820191505090505b509050600082602001820190505b600115611040578080600190039150507f3031323334353637383961626364656600000000000000000000000000000000600a86061a8153600a858161103457611033611e39565b5b04945060008503610feb575b819350505050919050565b60006002600083815260200190815260200160002060009054906101000a900473ffffffffffffffffffffffffffffffffffffffff169050919050565b80806110c15750600073ffffffffffffffffffffffffffffffffffffffff168273ffffffffffffffffffffffffffffffffffffffff1614155b156111f55760006110d18461092f565b9050600073ffffffffffffffffffffffffffffffffffffffff168373ffffffffffffffffffffffffffffffffffffffff161415801561113c57508273ffffffffffffffffffffffffffffffffffffffff168173ffffffffffffffffffffffffffffffffffffffff1614155b801561114f575061114d8184610831565b155b1561119157826040517fa9fbf51f0000000000000000000000000000000000000000000000000000000081526004016111889190611891565b60405180910390fd5b81156111f357838573ffffffffffffffffffffffffffffffffffffffff168273ffffffffffffffffffffffffffffffffffffffff167f8c5be1e5ebec7d5bd14f71427d1e84f3dd0314c0f7b2291e5b200ac8c7c3b92560405160405180910390a45b505b836004600085815260200190815260200160002060006101000a81548173ffffffffffffffffffffffffffffffffffffffff021916908373ffffffffffffffffffffffffffffffffffffffff16021790555050505050565b611258838383611488565b61130c57600073ffffffffffffffffffffffffffffffffffffffff168373ffffffffffffffffffffffffffffffffffffffff16036112cd57806040517f7e2732890000000000000000000000000000000000000000000000000000000081526004016112c4919061165b565b60405180910390fd5b81816040517f177e802f000000000000000000000000000000000000000000000000000000008152600401611303929190611e68565b60405180910390fd5b505050565b61131b8383611549565b6113306113266109f4565b6000858585610db5565b505050565b600080600090507a184f03e93ff9f4daa797ed6e38ed64bf6a1f0100000000000000008310611393577a184f03e93ff9f4daa797ed6e38ed64bf6a1f010000000000000000838161138957611388611e39565b5b0492506040810190505b6d04ee2d6d415b85acef810000000083106113d0576d04ee2d6d415b85acef810000000083816113c6576113c5611e39565b5b0492506020810190505b662386f26fc1000083106113ff57662386f26fc1000083816113f5576113f4611e39565b5b0492506010810190505b6305f5e1008310611428576305f5e100838161141e5761141d611e39565b5b0492506008810190505b612710831061144d57612710838161144357611442611e39565b5b0492506004810190505b60648310611470576064838161146657611465611e39565b5b0492506002810190505b600a831061147f576001810190505b80915050919050565b60008073ffffffffffffffffffffffffffffffffffffffff168373ffffffffffffffffffffffffffffffffffffffff161415801561154057508273ffffffffffffffffffffffffffffffffffffffff168473ffffffffffffffffffffffffffffffffffffffff16148061150157506115008484610831565b5b8061153f57508273ffffffffffffffffffffffffffffffffffffffff16611527836109b7565b73ffffffffffffffffffffffffffffffffffffffff16145b5b90509392505050565b600073ffffffffffffffffffffffffffffffffffffffff168273ffffffffffffffffffffffffffffffffffffffff16036115bb5760006040517f64a0ae920000000000000000000000000000000000000000000000000000000081526004016115b29190611891565b60405180910390fd5b60006115c983836000610a0e565b9050600073ffffffffffffffffffffffffffffffffffffffff168173ffffffffffffffffffffffffffffffffffffffff161461163d5760006040517f73c6ac6e0000000000000000000000000000000000000000000000000000000081526004016116349190611891565b60405180910390fd5b505050565b6000819050919050565b61165581611642565b82525050565b6000602082019050611670600083018461164c565b92915050565b6000604051905090565b600080fd5b600080fd5b60007fffffffff0000000000000000000000000000000000000000000000000000000082169050919050565b6116bf8161168a565b81146116ca57600080fd5b50565b6000813590506116dc816116b6565b92915050565b6000602082840312156116f8576116f7611680565b5b6000611706848285016116cd565b91505092915050565b60008115159050919050565b6117248161170f565b82525050565b600060208201905061173f600083018461171b565b92915050565b600081519050919050565b600082825260208201905092915050565b60005b8381101561177f578082015181840152602081019050611764565b60008484015250505050565b6000601f19601f8301169050919050565b60006117a782611745565b6117b18185611750565b93506117c1818560208601611761565b6117ca8161178b565b840191505092915050565b600060208201905081810360008301526117ef818461179c565b905092915050565b61180081611642565b811461180b57600080fd5b50565b60008135905061181d816117f7565b92915050565b60006020828403121561183957611838611680565b5b60006118478482850161180e565b91505092915050565b600073ffffffffffffffffffffffffffffffffffffffff82169050919050565b600061187b82611850565b9050919050565b61188b81611870565b82525050565b60006020820190506118a66000830184611882565b92915050565b6118b581611870565b81146118c057600080fd5b50565b6000813590506118d2816118ac565b92915050565b600080604083850312156118ef576118ee611680565b5b60006118fd858286016118c3565b925050602061190e8582860161180e565b9150509250929050565b60008060006060848603121561193157611930611680565b5b600061193f868287016118c3565b9350506020611950868287016118c3565b92505060406119618682870161180e565b9150509250925092565b60006020828403121561198157611980611680565b5b600061198f848285016118c3565b91505092915050565b6119a18161170f565b81146119ac57600080fd5b50565b6000813590506119be81611998565b92915050565b600080604083850312156119db576119da611680565b5b60006119e9858286016118c3565b92505060206119fa858286016119af565b9150509250929050565b600080fd5b600080fd5b7f4e487b7100000000000000000000000000000000000000000000000000000000600052604160045260246000fd5b611a468261178b565b810181811067ffffffffffffffff82111715611a6557611a64611a0e565b5b80604052505050565b6000611a78611676565b9050611a848282611a3d565b919050565b600067ffffffffffffffff821115611aa457611aa3611a0e565b5b611aad8261178b565b9050602081019050919050565b82818337600083830152505050565b6000611adc611ad784611a89565b611a6e565b905082815260208101848484011115611af857611af7611a09565b5b611b03848285611aba565b509392505050565b600082601f830112611b2057611b1f611a04565b5b8135611b30848260208601611ac9565b91505092915050565b60008060008060808587031215611b5357611b52611680565b5b6000611b61878288016118c3565b9450506020611b72878288016118c3565b9350506040611b838782880161180e565b925050606085013567ffffffffffffffff811115611ba457611ba3611685565b5b611bb087828801611b0b565b91505092959194509250565b60008060408385031215611bd357611bd2611680565b5b6000611be1858286016118c3565b9250506020611bf2858286016118c3565b9150509250929050565b7f4e487b7100000000000000000000000000000000000000000000000000000000600052602260045260246000fd5b60006002820490506001821680611c4357607f821691505b602082108103611c5657611c55611bfc565b5b50919050565b6000606082019050611c716000830186611882565b611c7e602083018561164c565b611c8b6040830184611882565b949350505050565b7f4e487b7100000000000000000000000000000000000000000000000000000000600052601160045260246000fd5b6000611ccd82611642565b9150611cd883611642565b9250828201905080821115611cf057611cef611c93565b5b92915050565b600081905092915050565b6000611d0c82611745565b611d168185611cf6565b9350611d26818560208601611761565b80840191505092915050565b6000611d3e8285611d01565b9150611d4a8284611d01565b91508190509392505050565b600081519050919050565b600082825260208201905092915050565b6000611d7d82611d56565b611d878185611d61565b9350611d97818560208601611761565b611da08161178b565b840191505092915050565b6000608082019050611dc06000830187611882565b611dcd6020830186611882565b611dda604083018561164c565b8181036060830152611dec8184611d72565b905095945050505050565b600081519050611e06816116b6565b92915050565b600060208284031215611e2257611e21611680565b5b6000611e3084828501611df7565b91505092915050565b7f4e487b7100000000000000000000000000000000000000000000000000000000600052601260045260246000fd5b6000604082019050611e7d6000830185611882565b611e8a602083018461164c565b939250505056fea2646970667358221220dfd8e59f230f89773648f7f2b6a71a26097318f6cbed8ca4acf21941e3a508f764736f6c634300081c0033",
  "linkReferences": {},
  "deployedLinkReferences": {}
}